S01700004763634170706C69636174696F6E312E737265635B
S113000032C04CC04BC04AC049C048C047C046C0BB
S113001045C044C043C042C041C040C03FC03EC0D0
S11300203DC03CC03BC0001F000000001F00001F7B
S1130030101010101F00001F181818181F00001FA0
S11300401C1C1C1C1F00001F1E1E1E1E1F00001F48
S11300501F1F1F1F1F0003070F1F0F070300181C7C
S11300601E1F1E1C180011241FBECFE5D4E0DEBFE6
S1130070CDBF10E0A0E6B0E0E2EAFDE002C00590EA
S11300800D92A436B107D9F710E0A4E6B0E001C0A0
S11300901D92A436B107E1F7CDD181C6B1CFCF927D
S11300A0DF92EF92FF920F931F93CF93DF9300D0D1
S11300B0CDB7DEB780E060E049D200D000D000D0F8
S11300C0EDB7FEB731968E010F5F1F4FADB7BEB7C8
S11300D012961C930E93119780E690E0938382838B
S11300E084E190E09583848395D38DB79EB706967B
S11300F00FB6F8949EBF0FBE8DBFC80162E011D247
S11301008FE996E8A1E081509040A040E1F700C05B
S1130110000082B3816882BB85B38C6085BB04E137
S113012010E07E010894E11CF11C0F2EF0E6CF2EA6
S1130130F0E0DF2EF02D3DC080E060E007D200D07B
S113014000D000D0EDB7FEB73196ADB7BEB712966A
S1130150FC92EE921197D382C282158304835AD300
S11301608DB79EB706960FB6F8949EBF0FBE8DBF8F
S1130170C70162E0D6D18FE996E8A1E081509040B2
S1130180A040E1F700C0000082B3816882BB85B360
S11301908C6085BB0B30110564F482B3846482BB2C
S11301A085B3826285BB82B38E7782BB85B3837F3E
S11301B085BB0150104009F0BFCF0F900F90DF9125
S11301C0CF911F910F91FF90EF90DF90CF90089502
S11301D0CF92DF92EF92FF920F931F93CF93DF930F
S11301E000D0CDB7DEB780E060E0B0D100D000D061
S11301F000D0EDB7FEB731968E010F5F1F4FADB73C
S1130200BEB712961C930E93119780E690E09383E9
S1130210828384E190E095838483FCD28DB79EB77A
S113022006960FB6F8949EBF0FBE8DBFC80162E05C
S113023078D18FE996E8A1E081509040A040E1F7A1
S113024000C0000082B3846282BB85B3816285BB37
S113025004E110E07E010894E11CF11C0F2EF0E68D
S1130260CF2EF0E0DF2EF02D3DC080E060E06ED1B7
S113027000D000D000D0EDB7FEB73196ADB7BEB711
S11302801296FC92EE921197D382C2821583048354
S1130290C1D28DB79EB706960FB6F8949EBF0FBE17
S11302A08DBFC70162E03DD18FE996E8A1E081509E
S11302B09040A040E1F700C0000082B3846282BB9A
S11302C085B3816285BB0B30110564F482B3826807
S11302D082BB85B3846185BB82B38B7D82BB85B3CE
S11302E08E7D85BB0150104009F0BFCF0F900F9059
S11302F0DF91CF911F910F91FF90EF90DF90CF90FE
S11303000895CF92DF92EF92FF920F931F93CF93B2
S1130310DF9300D0CDB7DEB780E060E017D100D026
S113032000D000D0EDB7FEB731968E010F5F1F4F9E
S1130330ADB7BEB712961C930E93119780E690E06A
S11303409383828384E190E09583848363D28DB721
S11303509EB706960FB6F8949EBF0FBE8DBFC80118
S113036062E0DFD08FE996E8A1E081509040A040A0
S1130370E1F700C0000082B3816482BB85B38A6068
S113038085BB04E110E07E010894E11CF11C0F2EF2
S1130390F0E6CF2EF0E0DF2EF02D3DC080E060E0EF
S11303A0D5D000D000D000D0EDB7FEB73196ADB7B0
S11303B0BEB71296FC92EE921197D382C282158335
S11303C0048328D28DB79EB706960FB6F8949EBFC5
S11303D00FBE8DBFC70162E0A4D08FE996E8A1E00B
S11303E081509040A040E1F700C0000082B38164D6
S11303F082BB85B38A6085BB0B30110564F482B37C
S1130400846282BB85B3816285BB82B38E7B82BBEF
S113041085B3857F85BB0150104009F0BFCF0F9095
S11304200F90DF91CF911F910F91FF90EF90DF908C
S1130430CF90089581B3876E81BB84B38F6384BBEF
S1130440D2D02DDE82B38B7B82BB85B38D7D85BB01
S1130450BFDE82B38D7782BB85B38B7E85BB51DFD4
S113046082B38B7D82BB85B38E7D85BBEACF982F0B
S1130470907F98BBC09AC29AE9EFF0E03197F1F708
S113048000C00000C298C098E9EFF0E03197F1F79E
S113049000C0000090E082959295907F9827807F1D
S11304A0982788BBC09AC29A89EF90E00197F1F728
S11304B000C00000C298C098E9EFF0E03197F1F76E
S11304C000C000000895982F907F98BBC29AE9EF6E
S11304D0F0E03197F1F700C00000C298E9EFF0E0D6
S11304E03197F1F700C0000090E082959295907FDB
S11304F09827807F982788BBC29A89EF90E001975C
S1130500F1F700C00000C298E9EFF0E03197F1F78D
S113051000C00000089581E0D6DF089582E0D3DFB3
S113052008950F931F93CF93DF93162F009749F0ED
S1130530662339F0EC0100E0899199DF0F5F011720
S1130540D9F7DF91CF911F910F910895623031F067
S1130550633031F0613029F4805C03C08C5E01C0EB
S11305608C5A8068B0DF08950F931F93CF938C014A
S1130570862F642FEBDFC801F8012491222361F058
S1130580C0E0FC01849173DFCF5FC8018C0F911D23
S1130590FC0124912223A9F7CF911F910F91089573
S11305A0EF92FF920F931F93CF93DF937C01D62F8B
S11305B0DD0FDD0FDD0FD06400E010E0F701E00F88
S11305C0F11FC4918D2F800F7EDF8C2F50DF0F5FC2
S11305D01F4F0830110591F7DF91CF911F910F91B3
S11305E0FF90EF9008951F93CF93DF9385EA9EE0E9
S11305F00197F1F700C0000018BA18BA87B3806FEA
S113060087BB87B3876087BB80E388BBC29AE9EF67
S1130610F0E03197F1F700C00000C298E9EFF0E094
S11306203197F1F700C0000088BBC29A89EF90E0CF
S11306300197F1F700C00000C298E9EFF0E03197AC
S1130640F1F700C0000080E288BBC29A89EF90E015
S11306500197F1F700C00000C298E9EFF0E031978C
S1130660F1F700C0000088E22EDF8CE02CDFC0E050
S1130670D0E060E001C0612F162F1F5FCE018A5DBC
S11306809F4F8EDF28961830B1F7DF91CF911F91DD
S11306900895CF93DF93D82F882331F0C0E08EE103
S11306A012DFCF5FCD17D9F7DF91CF910895CF93A4
S11306B0DF93D82F882331F0C0E088E104DFCF5FD7
S11306C0CD17D9F7DF91CF9108958EE0FCDE089520
S11306D08FE0F9DE08958CE0F6DE089588E0F3DE1D
S11306E008958CE0F0DE0895CF93DF93D82F88230C
S11306F031F0C0E080E1E7DECF5FCD17D9F7DF91BD
S1130700CF910895CF93DF93D82F882331F0C0E0A1
S113071084E1D9DECF5FCD17D9F7DF91CF9108956A
S1130720BF92CF92DF92EF92FF920F931F93CF93DA
S1130730DF93E82FF0E0842F90E09C01220F331F19
S1130740280F391F220F331FE29FC001E39F900D32
S1130750F29F900D112470E04AD08B01442349F19B
S1130760CB0166E070E02FD0415050E04F5F5F4F07
S11307707A01EE0CFF1CE40EF51EEE0CFF1CC0E02B
S1130780D0E00F2EF5E0DF2EF02DC82EBB24CE01D5
S113079005960817190728F40C171D0720F48B2D4C
S11307A003C08D2D01C08C2D62DE2696CE15DF058B
S11307B071F7DF91CF911F910F91FF90EF90DF9030
S11307C0CF90BF900895AA1BBB1B51E107C0AA1F7D
S11307D0BB1FA617B70710F0A61BB70B881F991FDE
S11307E05A95A9F780959095BC01CD01089597FB82
S11307F0092E07260AD077FD04D0E5DF06D00020B5
S11308001AF4709561957F4F0895F6F79095819548
S11308109F4F0895AEE0B0E0EFE0F4E097C20D8999
S11308201E8986E08C831A8309838FEF9FE79E835A
S11308308D83AE01475E5F4FCE0101966F89788D3F
S113084008D0EF81F885E00FF11F10822E96E4E0C6
S113085099C2ADE0B0E0EEE2F4E06AC23C017D870B
S11308606C875A01FC0117821682838181FFBBC108
S11308702E010894411C511CF3019381EC85FD85E4
S113088093FD859193FF8191FD87EC87882309F47B
S1130890A6C1853241F493FD859193FF8191FD8733
S11308A0EC87853221F490E0B301B8D1E5CFFF2481
S11308B0EE2410E01032B0F48B3269F08C3228F45C
S11308C0803251F0833271F40BC08D3239F08033B1
S11308D049F411602CC01260146029C0186027C04C
S11308E0106125C017FD2EC0282F20532A3098F4FC
S11308F016FF08C08F2D880FF82EFF0CFF0CF80E82
S1130900F20E15C08E2D880FE82EEE0CEE0CE80EBC
S1130910E20E10620CC08E3221F416FD60C1106428
S113092006C08C3611F4106802C0883659F4EC8580
S1130930FD8593FD859193FF8191FD87EC87882345
S113094009F0B8CF982F9554933018F09052933003
S113095038F424E030E0A20EB31E3FE339830FC025
S1130960833631F0833781F0833509F056C021C0D6
S1130970F5018081898322E030E0A20EB31E21E0DC
S1130980C22ED12C420113C092E0292E312C2A0C04
S11309903B1CF5018080918016FF03C06F2D70E031
S11309A002C06FEF7FEFC4012ED16C0151011F779C
S11309B014C082E0282E312C2A0C3B1CF5018080C7
S11309C0918016FF03C06F2D70E002C06FEF7FEFC0
S11309D0C4010ED16C011068510113FD1AC005C089
S11309E080E290E0B3011AD1EA948E2D90E0C8160B
S11309F0D906B0F30EC0F40117FD859117FF81915C
S1130A004F0190E0B3010AD1E110EA940894C108BF
S1130A10D108C114D10479F7DFC0843611F08936C6
S1130A2049F5F50117FF07C080819181A281B38147
S1130A3024E030E008C080819181AA2797FDA09529
S1130A40BA2F22E030E0A20EB31E012F0F76B7FFBB
S1130A5008C0B095A095909581959F4FAF4FBF4F1B
S1130A600068BC01CD01A2012AE030E003D1D82EF8
S1130A70D4183EC0853721F41F7E2AE030E020C020
S1130A80197F8F36A9F0803720F4883509F0A7C084
S1130A900BC0803721F0883709F0A1C001C0106174
S1130AA014FF09C0146007C014FF08C0166006C014
S1130AB028E030E005C020E130E002C020E132E06F
S1130AC0F50117FF07C0608171818281938144E041
S1130AD050E006C06081718180E090E042E050E027
S1130AE0A40EB51EA201C6D0D82ED418012F0F779C
S1130AF006FF09C00E7FDF1430F404FF06C002FDB8
S1130B0004C00F7E02C01D2D01C01F2D802F90E058
S1130B1004FF0CC0FE01ED0DF11D2081203311F402
S1130B20097E09C002FF06C01E5F05C0867890706A
S1130B30009709F01F5F802E992403FD11C000FF68
S1130B400CC0FD2C1E1548F4FE0CF11A1E2D05C018
S1130B5080E290E0B30162D01F5F1E15C8F304C0A9
S1130B601E1510F4E11A01C0EE2484FE0EC080E3C9
S1130B7090E0B30153D082FE1DC081FE03C088E51E
S1130B8090E010C088E790E00DC0C40186789070B2
S1130B90009781F081FC02C080E201C08BE207FD76
S1130BA08DE290E0B3013AD005C080E390E0B30158
S1130BB035D0FA94DF14C8F3DA94F201ED0DF11D87
S1130BC0808190E0B3012AD0DD20B1F705C080E236
S1130BD090E0B30123D0EA94EE20C9F74DCEF3019F
S1130BE08681978102C08FEF9FEF2D96E2E1BCC012
S1130BF0FC010590615070400110D8F780959095E4
S1130C008E0F9F1F0895FC016150704001900110E8
S1130C10D8F7809590958E0F9F1F08950F931F937B
S1130C20CF93DF938C01EB018B8181FF1BC082FF8B
S1130C300DC02E813F818C819D812817390764F472
S1130C40E881F9810193F983E88306C0E885F98591
S1130C50802F0995009731F48E819F8101969F839F
S1130C608E8302C00FEF1FEFC801DF91CF911F9158
S1130C700F910895FA01AA27283051F1203181F10A
S1130C80E8946F936E7F6E5F7F4F8F4F9F4FAF4F90
S1130C90B1E03ED0B4E03CD0670F781F891F9A1FA3
S1130CA0A11D680F791F8A1F911DA11D6A0F711D57
S1130CB0811D911DA11D20D009F468943F912AE063
S1130CC0269F11243019305D3193DEF6CF0108954B
S1130CD0462F4770405D4193B3E00FD0C9F7F6CF7C
S1130CE0462F4F70405D4A3318F0495D31FD405244
S1130CF0419302D0A9F7EACFB4E0A69597958795DA
S1130D0077956795BA95C9F70097610571050895B8
S1130D109B01AC010A2E0694579547953795279564
S1130D20BA95C9F7620F731F841F951FA01D0895FC
S1130D302F923F924F925F926F927F928F929F92E7
S1130D40AF92BF92CF92DF92EF92FF920F931F93D5
S1130D50CF93DF93CDB7DEB7CA1BDB0B0FB6F89486
S1130D60DEBF0FBECDBF09942A88398848885F84C6
S1130D706E847D848C849B84AA84B984C884DF8037
S1130D80EE80FD800C811B81AA81B981CE0FD11D1B
S1130D900FB6F894DEBF0FBECDBFED010895F894F1
S1050DA0FFCF7F
S1070DA225640000C0
S9030000FC
